:0300000002009269
:0C009200787FE4F6D8FD75810902002497
:10003A00EFD39400400B7E477D02DDFEDEFA1F807F
:01004A00EFC6
:01004B002292
:070003001200687FF47E018A
:0A000A00EF1FAC0670011E4C600FE2
:0D001400007508027509C7D509FDD508FA69
:0300210080E72253
:0E004C00D2B07F0112003AC2B07F2702003A04
:0E005A00D2B07F0212003AC2B07F2602003AF6
:0E006800D2B07F0312003AC2B07F2502003AE8
:0E007600D2B07F0412003AC2B07F2402003ADA
:0E008400D2B07F0512003AC2B07F2302003ACC
:1000240012000312007612000612000312005A7F17
:06003400F47E0102000A47
:00000001FF
