:030000000201B149
:0C01B100787FE4F6D8FD7581100201BDD6
:1000030000001C0202025C40405C0202021C000071
:1000130001020408102040808040201008040201DF
:100023000000000000002412091224000000000058
:100033000000000000000000244890482400000055
:1000430000000000000000000000004428104428C5
:10005300104428100000102844102844102844009D
:1000630000000000002E2A3A00023E02003E223E1B
:10007300003E0A0E00000000000000000000000027
:070083000000000000000076
:10017C00D2867F037E0012015DD2877F037E001240
:0B018C00015DC2877F037E0002015D61
:0200D1008F0D91
:1000D300E4F50EC2867F037E0012015DE50D30E07C
:1000E30004D2878002C2877F037E0012015DD2861D
:1000F3007F037E0012015DE50DC313F50D050EC3ED
:08010300E50E6480948840CBF6
:01010B0022D1
:10013900C2867F037E0012015DC2877F037E0012A3
:10014900015DD2867F037E0012015DD2877F037E27
:040159000002015D42
:06008A008B088A09890AB7
:1000900012017C7FC01200D1E4F50BF50CAB08AA6D
:1000A00009A90A850C82850B8312010CFF1200D16D
:1000B000050CE50C7002050BC39410E50B648094ED
:1000C0008040DA12013912017C7F8A1200D10201CC
:0100D00039F6
:0701C600C286C28702008A15
:0901BD007BFF7A0079030201C600
:10015D00E4FDFCC3ED9FEC9E50147B0B7A00EB1B72
:0E016D0070011AEB4A70F70DBD00010C80E521
:01017B002261
:0A019700EF1FAC0670011E4C600F54
:0D01A10000750F027510C7D510FDD50FFABF
:0301AE0080E722C5
:10010C00BB010CE58229F582E5833AF583E02250A8
:10011C0006E92582F8E622BBFE06E92582F8E222F2
:0D012C00E58229F582E5833AF583E493220C
:00000001FF
