:03000000021703E1
:0C170300787FE4F6D8FD75813C0216A842
:050026003A00636D00CB
:10164E00E4F587759850758920758BFD758DFDC2F3
:08165E00ABD28ED2AFD2AC2258
:101218007B03E4FDFF12133C7B04E4FD7F121213F1
:101228003C7B057D02E4FF12133C7B067D027F12A6
:1012380012133C7B0C7D027F2C12133C7B0D7D022C
:101248007F3E12133C7B0D7D04E4FF12133C7B0EA2
:101258007D047F1212133C7BFF7A007926751110EA
:10126800E4FD7F241214177BFF7A0079267511108C
:101278007D027F241214177BFF7A007926751110DE
:101288007D047F241214177BFF7A007928751110CA
:101298007D047F44121417AF39AE38120F938F0BA9
:1012A8008E0A8D098C08120D51AB07AA067510031A
:0A12B8007511107D047F2C0212C294
:1016A80012164E1216F612107A1200031212188031
:0116B800FB36
:03002300020E9A30
:100E9A00C0E0C0F0C083C082C0D075D000C000C01E
:0D0EAA0001C002C003C004C005C006C0079F
:100EB70085991AC298E51A120E740F33300F3C3118
:100EC7000F45320F4E330F57340F60350F69360E0B
:100ED700E6610EF6620F07630F186600000F70E4F5
:100EE700FBFD7F2C12133C75380075391E807A7B09
:100EF70001E4FD7F2C12133C75380075393C80697D
:100F07007B02E4FD7F2C12133C75380075395A803B
:100F1700587B107D027F2C12133C7B117D027F3E94
:100F270012133CAF39AE38121695803DAF39AE3843
:100F370012151D8034AF39AE381214D5802BAF3956
:100F4700AE381214F98022AF39AE38121541801924
:100F5700AF39AE381215658010AF39AE3812158922
:100F67008007AF39AE381215AD851A993099FDC291
:010F770099E0
:100F7800D007D006D005D004D003D002D001D000CD
:0B0F8800D0D0D082D083D0F0D0E03277
:1014D5008E238F24D2A7C2A6D2A5C2A4121634C2C7
:1014E500A7C2A6C2A5C2A4C374649524FFE495232C
:0414F500FE021634A9
:1014F9008E238F24C2A7D2A6C2A5D2A4121634C2A3
:10150900A7C2A6C2A5C2A4C374649524FFE4952307
:04151900FE02163484
:10151D008E238F24C2A7C2A6C2A5C2A4121634C29E
:10152D00A7C2A6C2A5C2A4C374649524FFE49523E3
:04153D00FE02163460
:101541008E238F24C2A7D2A6D2A5C2A4121634C25A
:10155100A7C2A6C2A5C2A4C374649524FFE49523BF
:04156100FE0216343C
:101565008E238F24D2A7C2A6C2A5D2A4121634C236
:10157500A7C2A6C2A5C2A4C374649524FFE495239B
:04158500FE02163418
:101589008E1B8F1CC2A7C2A6C2A5D2A4121634C232
:10159900A7C2A6C2A5C2A4C37464951CFFE4951B87
:0415A900FE021634F4
:1015AD008E1B8F1CC2A7D2A6C2A5C2A4121634C20E
:1015BD00A7C2A6C2A5C2A4C37464951CFFE4951B63
:0415CD00FE021634D0
:0D16F600438901E4F5CDF5CCD2ADD2AF2291
:040F93008E1D8F1E02
:100F9700D2A17F0A7E00121615C2A130A0FDD2CAC7
:100FA70020A0FDC2CAAFCDEFFEADCC7C00E42DFD85
:100FB700EC3EFCE4120D188F228E218D208C1FE44D
:100FC700FBFA79687842120C098F228E218D208CCA
:100FD7001FE4F5CDF5CCE53364014532600302101B
:100FE7007130B40C20B509AF1EAE1D121565807A9D
:100FF70020B40C30B509AF1EAE1D121541806BE44D
:10100700FFFE7D407C40AB22AA21A920A81F120C1D
:10101700A6600B4009AF1EAE1D1214D5804CE4FF2D
:10102700FEFD7C40AB22AA21A920A81F120CA640D6
:101037001FE4FFFE7D407C40AB22AA21A920A81F08
:10104700120CA660025009AF1EAE1D12151D801AA4
:10105700E4FFFEFD7C40AB22AA21A920A81F120CA9
:10106700A65007AF1EAE1D1214F9AF22AE21AD2058
:02107700AC1FAC
:011079002254
:101695008E1B8F1C753200753301AF1CAE1B120FEC
:0316A5009380F738
:03002B0002171F9A
:03171F00C2A03233
:10161500E4FDFCC3ED9FEC9E50147B0B7A00EB1BA5
:0E16250070011AEB4A70F70DBD00010C80E554
:011633002294
:0A163400EF1FAC0670011E4C600FA2
:0D163E00007525027526C7D526FDD525FAB5
:03164B0080E72213
:10002E000000000000000000002F0000000007008C
:10003E00070000147F147F1400242A7F2A12006206
:10004E0064081323003649552250000005030000B2
:10005E0000001C224100000041221C000014083E3A
:10006E0008140008083E0808000000A06000000800
:10007E000808080800006060000000201008040254
:10008E00003E5149453E0000427F40000042615112
:10009E004946002141454B31001814127F100027AC
:1000AE0045454539003C4A4949300001710905036F
:1000BE0000364949493600064949291E00003636A0
:1000CE000000000056360000000814224100001403
:1000DE0014141414000041221408000201510906E0
:1000EE0000324959513E007C1211127C007F494961
:1000FE004936003E41414122007F4141221C007F92
:10010E0049494941007F09090901003E4149497A9F
:10011E00007F0808087F0000417F41000020404119
:10012E003F01007F08142241007F40404040007F85
:10013E00020C027F007F0408107F003E4141413EC9
:10014E00007F09090906003E4151215E007F091911
:10015E0029460046494949310001017F0101003F0E
:10016E004040403F001F2040201F003F4038403F8E
:10017E0000631408146300070870080700615149F2
:10018E00454300007F41410000552A552A55000085
:10019E0041417F0000040201020400404040404003
:1001AE00000001020400002054545478007F48449B
:1001BE00443800384444442000384444487F0038D2
:1001CE005454541800087E0901020018A4A4A47CFB
:1001DE00007F080404780000447D400000408084C5
:1001EE007D00007F102844000000417F4000007C0D
:1001FE0004180478007C0804047800384444443819
:10020E0000FC242424180018242418FC007C080464
:10021E00040800485454542000043F444020003C3D
:10022E004040207C001C2040201C003C4030403CC4
:10023E00004428102844001CA0A0A07C0044645454
:10024E004C44141414141414000000000000000098
:10025E000000000000000000000000F80000000098
:10026E00000000333000000000100C06100C0600D9
:10027E00000000000000000040C07840C078400040
:10028E00043F04043F040400007088FC08300000A2
:10029E00001820FF211E0000F008F000E0180000FA
:1002AE0000211C031E211E0000F0088870000000B3
:1002BE001E2123241927211010160E000000000005
:1002CE000000000000000000000000E01804020022
:1002DE00000000071820400000020418E000000093
:1002EE000040201807000000404080F08040400091
:1002FE000202010F01020200000000F000000000E7
:10030E000101011F010101000000000000000000BA
:10031E0080B070000000000000000000000000002F
:10032E0000010101010101010000000000000000B8
:10033E000030300000000000000000008060180453
:10034E00006018060100000000E010080810E00030
:10035E00000F102020100F00001010F800000000F9
:10036E000020203F20200000007008080888700040
:10037E0000302824222130000030088888483000C0
:10038E000018202020110E000000C02010F80000E0
:10039E0000070424243F240000F808888808080079
:1003AE000019212020110E0000E01088881800008E
:1003BE00000F112020110E0000380808C838080060
:1003CE000000003F000000000070880808887000E0
:1003DE00001C222121221C0000E010080810E00061
:1003EE000000312222110F00000000C0C0000000EA
:1003FE00000000303000000000000080000000000F
:10040E000000806000000000000080402010080006
:10041E0000010204081020004040404040404000CF
:10042E0004040404040404000008102040800000AA
:10043E000020100804020100007048080808F000AF
:10044E000000003036010000C030C828E810E0007F
:10045E000718272423140B000000C038E00000000A
:10046E00203C23020227382008F888888870000074
:10047E00203F202020110E00C03008080808380048
:10048E00071820202010080008F808080810E000BF
:10049E00203F202020100F0008F88888E808100060
:1004AE00203F20202320180008F88888E808100034
:1004BE00203F200003000000C0300808083800006C
:1004CE0007182020221E020008F808000008F8086D
:1004DE00203F210101213F20000808F808080000F4
:1004EE000020203F2020000000000808F808080027
:1004FE00C08080807F00000008F888C0281808009F
:10050E00203F20012638200008F8080000000000D7
:10051E00203F20202020300008F8F800F8F80800CE
:10052E00203F003F003F200008F830C00008F808C8
:10053E00203F200007183F00E01008080810E000D8
:10054E000F10202020100F0008F808080808F000EF
:10055E00203F210101010000E01008080810E00012
:10056E000F18242438504F0008F8888888887000A7
:10057E00203F2000030C3020007088080808380047
:10058E000038202121221C00180808F8080818003D
:10059E000000203F2000000008F808000008F808BE
:1005AE00001F202020201F000878880000C838086F
:1005BE00000007380E010000F80800F80008F800E7
:1005CE00033C0700073C0300081868808068180881
:1005DE0020302C03032C30200838C800C8380800FF
:1005EE000000203F2000000010080808C83808004E
:1005FE002038262120201800000000FE02020200F2
:10060E000000007F40404000000C30C000000000A1
:10061E00000000010638C00000020202FE000000C9
:10062E00004040407F00000000000402020204006F
:10063E0000000000000000000000000000000000AC
:10064E008080808080808080000202040000000094
:10065E00000000000000000000008080808000008C
:10066E000019242222223F2008F80080800000007A
:10067E00003F112020110E0000000080808000003D
:10068E00000E112020201100000000808088F8004C
:10069E00000E112020103F2000008080808000007E
:1006AE00001F222222221300008080F088888818E2
:1006BE000020203F202000000000808080808000ED
:1006CE00006B94949493600008F800808080000082
:1006DE00203F210000203F2000809898000000005D
:1006EE000020203F2020000000000080989800008D
:1006FE0000C08080807F000008F8000080808000AD
:10070E00203F24022D302000000808F800000000D1
:10071E000020203F2020000080808080808080008C
:10072E00203F20003F20003F80800080808000001E
:10073E00203F210000203F200000808080800000AC
:10074E00001F202020201F008080008080000000DD
:10075E0080FFA12020110E0000000080808080000C
:10076E00000E112020A0FF808080800080808000FD
:10077E0020203F212000010000008080808080002A
:10078E000033242424241900008080E0808000009F
:10079E000000001F202000008080000000808000EC
:1007AE00001F202020103F2080808000008080804D
:1007BE0000010E30080601008080008000808080DD
:1007CE000F300C030C300F00008080008080800002
:1007DE000020312E0E31200080808000008080802D
:1007EE0080818E70180601000080808080808000DD
:1007FE000021302C2221300000000000807C0202FB
:10080E0000000000003F404000000000FF0000001C
:10081E0000000000FF0000000002027C80000000CB
:10082E000040403F000000000006010102020404E7
:10083E0000000000000000008080808080808080AA
:10084E00808080808080800000000000000000001A
:10085E00000000000000000000000000000000008A
:10086E00000000000000000000000000000000007A
:10087E00000000000000000000000808080808083A
:10088E000808080808000000000000000000000032
:10089E0000000000000000001010101010101010CA
:1008AE0010101010101010000000000000000000CA
:1008BE00000000000000000000048484848484840E
:1008CE008484848484040000000000000000000082
:1008DE00000000000000000020202020202020200A
:1008EE00202020202020200000000000000000001A
:1008FE000000000000000000404042CC0004F494D0
:10090E0094FF9494F4040000000000000000000026
:10091E0000000000000000000040201F204844425C
:10092E00415F4142444840000000000000000000CA
:10093E0000000000000000000000FC242424FC2520
:10094E002624FC24242404000000000000000000E3
:10095E00000000000000000040308F80844C5525C0
:10096E002525554C8080800000000000000000000E
:10097E0000000000000000001010D0FF9014E4AF43
:10098E00A4A4A4AFE40400000000000000000000D6
:10099E000000000000000000040300FF00894B2A45
:1009AE001A0E1A2A4B88800000000000000000007A
:1009BE000000000000000000101090909090901029
:1009CE0010FF1010111610000000000000000000B3
:1009DE000000000000000000002060203F101010FA
:1009EE0000030C102040F800000000000000000082
:1009FE0000000000000000004042CC00807E222259
:100A0E003E005465C6645400000000000000000063
:100A1E00000000000000000040201F22415F4949F5
:100A2E005F4042425F4242000000000000000000B2
:100A3E00000000000000000000FE0222DA0610D2C4
:100A4E00565A535A56D21000000000000000000003
:100A5E00000000000000000000FF0810080710173B
:100A6E001515FD1515171000000000000000000000
:100A7E00000000000000000040484848FF4848427F
:100A8E00A29E82A2C2BE0000000000000000000074
:100A9E00000000000000000080601F207F444440E2
:100AAE004F484848484F400000000000000000003A
:100ABE0000000000000000000414D454545454DF0D
:100ACE0054545454D41404000000000000000000DC
:100ADE00000000000000000080601F0202020203FE
:100AEE0002020202030000000000000000000000ED
:100AFE0000000000000000001060020CC000F8882A
:100B0E008888FF8888A818000000000000000000F8
:100B1E00000000000000000004047C0380601F80C1
:100B2E00432C1028468180000000000000000000C9
:100B3E0000000000000000001060028C00FE02F2B7
:100B4E0002FE00F800FF00000000000000000000A0
:100B5E00000000000000000004047E018047300FFA
:100B6E0010270047807F00000000000000000000FA
:100B7E000000000000000000003E22E2223E00FEC7
:100B8E002222222222E202000000000000000000C9
:100B9E000000000000000000203F201F1111007F08
:100BAE00444444444447400000000000000000005C
:100BBE000000000000000000040404F484D4A5A684
:100BCE00A4D484F40404040000000000000000001B
:100BDE00000000000000000000FE0202123A161390
:100BEE00121A3242827E0000000000000000000057
:080BFE000000000000000000EF
:09170F00D2B2D2B3C2B3C2B222BD
:07171800D2B2C2B3D2B3222A
:0B16CA001214B61216D5AF041214B6AD
:0516D500D2B2C2B222F6
:0714AF00AC0712170F7F7854
:1014B600C2B2E4FEAD07530580BD8004D2B38002FC
:0E14C600C2B3EF25E0FFD2B2C2B20EBE08E6FE
:0114D40022F5
:0E16DA001214AF1216D5E4FF1216CA0217182A
:0E16E8001214AF1216D57F401216CA02171840
:10145700E924B0FFE433FEE4FDFC121472E4FDFC62
:0B146700FFFE1214727F10E4FDFCFE7B
:10147200AB07AA06ED4C60030216E8AF031216DAB8
:011482002247
:0215D1008F3A4F
:1015D300E4F9121457E4F53BAF3A7E007D017C0039
:1015E300121472053BE53BC3948040EC09B908E251
:0115F30022D5
:10148300A907ED24B0FFE433FEE4FDFC121472E976
:1014930054F0C4540F7E004410FFE4FDFC12147298
:0C14A300E9540FFF7E00E4FDFC0214720F
:10167E007F8D12146EE4FDFC7F14FE121472E4FDD5
:07168E00FC7FAFFE021472A5
:1016B900E4FDFC7F8D121468E4FDFC7FAEFE02148C
:0116C90072AE
:10000300E4F9121457E4F5087D017C00E4FFFE12C5
:0F00130014720508E508C3948040ED09B908E3AD
:0100220022BB
:1015F400E4F9121457E4F53C7D017C007F017E0080
:10160400121472053CE53CC3948040EC09B908E22D
:0116140022B3
:04115A008F158D164A
:10115E00E4F519F9EB24E0F519E515D3947F400772
:10116E00E4F51505160516E51864107069AD16AF91
:10117E0015121483E4F975F010E519A429F582E42B
:10118E0035F0F583E5822456F582E5833402F58346
:10119E00E493FF7E007D017C0012147209B908D61B
:1011AE00E51604FDAF15121483E4F975F010E51978
:1011BE00A429F582E435F0F583E582245EF582E517
:1011CE00833402F583E493FF7E007D017C001214CC
:1011DE007209B908D622AD16AF15121483E4F9754B
:1011EE00F006E519A4242EF582E5F03400F583E52A
:1011FE008229F582E43583F583E493FF7E007D0139
:09120E007C0012147209B906D625
:0112170022B4
:041666008F15A9052E
:10166A007F017E00AD0119ED6009AD157C00120DF8
:03167A00FF80F1FD
:01167D00224A
:0812C2008F0C8D0D8A0E8B0FBD
:1012CA00E4F514F512E512C395105065C3E51095BF
:1012DA001214FD7F0A121666AC0EAD0FCFCDCFCE1B
:1012EA00CCCE120E117C007D0A120E118D13E5145C
:1012FA007023E51014FFE512C39F5019E51370120D
:10130A00E511C3138512F0A4250CFF8511187B2063
:10131A008016751401E511C3138512F0A4250CFF7C
:10132A00E5132430FB851118AD0D12115A051280F0
:01133A00941E
:01133B00228F
:0A1417008F0C8D0D8B0E8A0F8910CB
:10142100E4F512AB0EAA0FA9108512827583001282
:101431000DD2FB6020851118AD0DAF0C12115A743D
:1014410008250CF50CD394784007E4F50C050D053F
:051451000D051280CE24
:011456002273
:06133C008F1B8D1C8B1DB0
:10134200E4F51E121483E4F975F040E51DA4244669
:10135200F582E5F03408F583E58229F582E43583E8
:10136200F583E493FF7E007D017C00121472051E5A
:1013720009B910D4E51C04FDAF1B121483E4F975FE
:10138200F040E51DA42466F582E5F03408F583E516
:101392008229F582E43583F583E493FF7E007D01A3
:0B13A2007C00121472051E09B910D463
:0113AD00221D
:0413AE008F278B29D1
:1013B200E4F52EF52FE52A5407700BE52A131313D3
:1013C200541FF531800AE52A131313541F04F53113
:1013D2008D31E531C3952A503BAD31AF27121483CD
:1013E200852730E530C395295026AB2BAA2CA92D91
:1013F200052FE52FAE2E7002052E14F5828E831274
:101402000DD2FF7E007D017C00121472053080D364
:04141200053180BE62
:0114160022B3
:10107A00E4FDFC7FAEFE121461E4FDFC7F40FE122B
:10108A001472E4FDFC7FB0FE121472E4FDFC7F8151
:10109A00FE121472E4FDFC7FFFFE121472E4FDFCE2
:1010AA007FA1FE121472E4FDFC7FA6FE121472E404
:1010BA00FDFC7FA8FE121472E4FDFC7F3FFE1214B1
:1010CA0072E4FDFC7FC8FE121472E4FDFC7FD3FEBD
:1010DA00121472E4FDFCFFFE121472E4FDFC7FD5CB
:1010EA00FE121472E4FDFC7F80FE121472E4FDFC11
:1010FA007FD8FE121472E4FDFC7F05FE121472E41E
:10110A00FDFC7FD9FE121472E4FDFC7FF1FE12147D
:10111A0072E4FDFC7FDAFE121472E4FDFC7F12FE1B
:10112A00121472E4FDFC7FDBFE121472E4FDFC7FF4
:10113A0030FE121472E4FDFC7F8DFE121472E4FD7F
:10114A00FC7F14FE121472E4FDFC7FAFFE021472DF
:100C0600020DC7EC5D046005E859047003020DBDD2
:100C1600120D88580460F6EC4860F2EC7004FDFE94
:100C2600FF22C860DB2481C85009C39860025006C1
:100C3600020DC49850CAF582E9294B4A7005AB8269
:100C4600020DB375F0007C1A7880C3EF9BEE9AED27
:100C560099400DC3EF9BFFEE9AFEED99FDE842F039
:100C6600DC23ACF0D0E0FFD0E0FED0E0FDAB82208C
:100C7600E7101BEB60BAEC2CFCEF33FFEE33FEED16
:100C860033FD020D9FE803F830E705C0F075F0006C
:100C9600EF2FFFEE33FEED33FD40B830E7C280AAFA
:100CA60074F8CC6480CCC86480C8F582046043C301
:100CB600EB9FF5F0EA9E42F0E99D42F0E89C45F094
:100CC60060305018E5825FFFE582F42B5582FB50B9
:100CD600210ABA001D09B90019088016E5825BFBD6
:100CE600E582F42F5582FF50090EBE00050DBD00AA
:100CF600010CC3EB9FF5F0EA9E42F0E99D42F0E855
:0D0D06009C45F06007CC4820E701B3EC22CB
:100D130075F020800E75F010800575F0087D007E5B
:100D2300007F003392D530D503120E66EC334010AA
:100D3300EF33FFEE33FEED33FDEC33FCD5F0ED2264
:0E0D4300E5F0247EA2D513CC92E7CDCEFF22A0
:100D5100EDD2E7CD33EC3392D524814006E4FFFE9A
:100D6100FDFC22FCE4CFCECDCC24E0501174FF80F9
:100D7100EDC3CC13CCCD13CDCE13CECF13CF047096
:070D8100F030D5DE020E6622
:100D8800E9D2E7C933E833F892D5EDD2E7CD33ECB1
:070D980033FC5002B2D5222A
:100D9F00EC30E7100FBF000C0EBE00080DBD0004B5
:100DAF000BEB6014A2D5EB13FCED92E7FD2274FF61
:100DBF00FCFDFEFF22E480F8A2D574FF13FC7D80BA
:030DCF00E480EFCE
:100DD200BB010CE58229F582E5833AF583E02250D6
:100DE20006E92582F8E622BBFE06E92582F8E22220
:0D0DF200E58229F582E5833AF583E493223A
:100DFF00EF8DF0A4A8F0CF8CF0A428CE8DF0A42E08
:020E0F00FE22C1
:100E1100BC000BBE0029EF8DF084FFADF022E4CCC5
:100E2100F875F008EF2FFFEE33FEEC33FCEE9DEC8E
:100E3100984005FCEE9DFE0FD5F0E9E4CEFD22EDD4
:100E4100F8F5F0EE8420D21CFEADF075F008EF2F1E
:100E5100FFED33FD4007985006D5F0F222C398FD0F
:050E61000FD5F0EA22AC
:0E0E6600C3E49FFFE49EFEE49DFDE49CFC229D
:100E7400D083D082F8E4937012740193700DA3A30D
:100E840093F8740193F5828883E473740293686021
:060E9400EFA3A3A380DF21
:00000001FF
