:0300000002115D8D
:0C115D00787FE4F6D8FD75813102108423
:10108400752300752401120BDB1210647B03E4FD4D
:0F109400FF120E877B04E4FD7F14120E8780FE8F
:100003000000000000000000002F000000000700B7
:10001300070000147F147F1400242A7F2A12006231
:1000230064081323003649552250000005030000DD
:1000330000001C224100000041221C000014083E65
:1000430008140008083E0808000000A0600000082B
:10005300080808080000606000000020100804027F
:10006300003E5149453E0000427F4000004261513D
:100073004946002141454B31001814127F100027D7
:1000830045454539003C4A4949300001710905039A
:1000930000364949493600064949291E00003636CB
:1000A300000000005636000000081422410000142E
:1000B300141414140000412214080002015109060B
:1000C30000324959513E007C1211127C007F49498C
:1000D3004936003E41414122007F4141221C007FBD
:1000E30049494941007F09090901003E4149497ACB
:1000F300007F0808087F0000417F41000020404145
:100103003F01007F08142241007F40404040007FB0
:10011300020C027F007F0408107F003E4141413EF4
:10012300007F09090906003E4151215E007F09193C
:1001330029460046494949310001017F0101003F39
:100143004040403F001F2040201F003F4038403FB9
:10015300006314081463000708700807006151491D
:10016300454300007F41410000552A552A550000B0
:1001730041417F000004020102040040404040402E
:10018300000001020400002054545478007F4844C6
:10019300443800384444442000384444487F0038FD
:1001A3005454541800087E0901020018A4A4A47C26
:1001B300007F080404780000447D400000408084F0
:1001C3007D00007F102844000000417F4000007C38
:1001D30004180478007C0804047800384444443844
:1001E30000FC242424180018242418FC007C080490
:1001F300040800485454542000043F444020003C69
:100203004040207C001C2040201C003C4030403CEF
:10021300004428102844001CA0A0A07C004464547F
:100223004C441414141414140000000000000000C3
:100233000000000000000000000000F800000000C3
:10024300000000333000000000100C06100C060004
:10025300000000000000000040C07840C07840006B
:10026300043F04043F040400007088FC08300000CD
:10027300001820FF211E0000F008F000E018000025
:1002830000211C031E211E0000F0088870000000DE
:100293001E2123241927211010160E000000000030
:1002A3000000000000000000000000E0180402004D
:1002B300000000071820400000020418E0000000BE
:1002C3000040201807000000404080F080404000BC
:1002D3000202010F01020200000000F00000000012
:1002E3000101011F010101000000000000000000E6
:1002F30080B070000000000000000000000000005B
:1003030000010101010101010000000000000000E3
:10031300003030000000000000000000806018047E
:10032300006018060100000000E010080810E0005B
:10033300000F102020100F00001010F80000000024
:100343000020203F2020000000700808088870006B
:1003530000302824222130000030088888483000EB
:100363000018202020110E000000C02010F800000B
:1003730000070424243F240000F8088888080800A4
:100383000019212020110E0000E0108888180000B9
:10039300000F112020110E0000380808C83808008B
:1003A3000000003F0000000000708808088870000B
:1003B300001C222121221C0000E010080810E0008C
:1003C3000000312222110F00000000C0C000000015
:1003D300000000303000000000000080000000003A
:1003E3000000806000000000000080402010080032
:1003F30000010204081020004040404040404000FB
:1004030004040404040404000008102040800000D5
:100413000020100804020100007048080808F000DA
:100423000000003036010000C030C828E810E000AA
:100433000718272423140B000000C038E000000035
:10044300203C23020227382008F88888887000009F
:10045300203F202020110E00C03008080808380073
:10046300071820202010080008F808080810E000EA
:10047300203F202020100F0008F88888E80810008B
:10048300203F20202320180008F88888E80810005F
:10049300203F200003000000C03008080838000097
:1004A30007182020221E020008F808000008F80898
:1004B300203F210101213F20000808F8080800001F
:1004C3000020203F2020000000000808F808080052
:1004D300C08080807F00000008F888C028180800CA
:1004E300203F20012638200008F808000000000003
:1004F300203F20202020300008F8F800F8F80800FA
:10050300203F003F003F200008F830C00008F808F3
:10051300203F200007183F00E01008080810E00003
:100523000F10202020100F0008F808080808F0001A
:10053300203F210101010000E01008080810E0003D
:100543000F18242438504F0008F8888888887000D2
:10055300203F2000030C3020007088080808380072
:100563000038202121221C00180808F80808180068
:100573000000203F2000000008F808000008F808E9
:10058300001F202020201F000878880000C838089A
:10059300000007380E010000F80800F80008F80012
:1005A300033C0700073C03000818688080681808AC
:1005B30020302C03032C30200838C800C83808002A
:1005C3000000203F2000000010080808C838080079
:1005D3002038262120201800000000FE020202001D
:1005E3000000007F40404000000C30C000000000CD
:1005F300000000010638C00000020202FE000000F5
:10060300004040407F00000000000402020204009A
:1006130000000000000000000000000000000000D7
:1006230080808080808080800002020400000000BF
:1006330000000000000000000000808080800000B7
:100643000019242222223F2008F8008080000000A5
:10065300003F112020110E00000000808080000068
:10066300000E112020201100000000808088F80077
:10067300000E112020103F200000808080800000A9
:10068300001F222222221300008080F0888888180D
:100693000020203F20200000000080808080800018
:1006A300006B94949493600008F8008080800000AD
:1006B300203F210000203F20008098980000000088
:1006C3000020203F202000000000008098980000B8
:1006D30000C08080807F000008F8000080808000D8
:1006E300203F24022D302000000808F800000000FD
:1006F3000020203F202000008080808080808000B8
:10070300203F20003F20003F808000808080000049
:10071300203F210000203F200000808080800000D7
:10072300001F202020201F00808000808000000008
:1007330080FFA12020110E00000000808080800037
:10074300000E112020A0FF80808080008080800028
:1007530020203F2120000100000080808080800055
:100763000033242424241900008080E080800000CA
:100773000000001F20200000808000000080800017
:10078300001F202020103F20808080000080808078
:1007930000010E3008060100808000800080808008
:1007A3000F300C030C300F0000808000808080002D
:1007B3000020312E0E312000808080000080808058
:1007C30080818E7018060100008080808080800008
:1007D3000021302C2221300000000000807C020226
:1007E30000000000003F404000000000FF00000048
:1007F30000000000FF0000000002027C80000000F7
:100803000040403F00000000000601010202040412
:1008130000000000000000004040404040404040D5
:100823004040404040000000000000000000000085
:1008330000000000000000000000000000000000B5
:1008430000000000000000000000000000000000A5
:100853000000000000000000000404040404040479
:100863000404040400001010000000000000000055
:1008730000000000000000001010101010101010F5
:100883001010100000000000000000000000000035
:100893000000000000000000000282828282828247
:1008A300828282020000202000000000000000007D
:1008B3000000000000000000202020202020202035
:1008C30020202000000000000000000000000000C5
:1008D30000000000000000004042CC0004F49494A7
:1008E300FF9494F4040020100000000000000000B6
:1008F30000000000000000000F10282422213F21E7
:100903002224280000000000000000000000000076
:1009130000000000000000000000FC14147C555689
:1009230054547C1414002018000000000000000040
:10093300000000000000000007202113150909151D
:100943001321200000000000000000000000000050
:10095300000000000000000008C8FF4880F45F5456
:1009630054545FF404000100000000000000000084
:1009730000000000000000003F002425150D070DB6
:100983001525240000000000000000000000000006
:100993000000000000000000084848C84848080854
:1009A300FF08090A08001010000000000000000002
:1009B3000000000000000000101F080808000106E6
:1009C30008103C00000000000000000000000000D0
:1009D30000000000000000002021E600FE92929E2D
:1009E3004455E654440020100000000000000000BD
:1009F30000000000000000000F12212724272021FF
:100A03002F21200000000000000000000000000073
:100A13000000000000000000FE0232CE00EAAEAA91
:100A2300ABAAAEEA08003F0400000000000000008B
:100A330000000000000000000403080B0A0A3E0A3D
:100A43000A0B080000000000000000000000000086
:100A53000000000000000000404848FF4848229E74
:100A630082A2A29E0000300F0000000000000000E0
:100A73000000000000000000101F2222202F282861
:100A8300282F2000000000000000000000000000EC
:100A9300000000000000000002EA2A2A2A2AEF2AA6
:100AA3002A2A2AEA0200201F00000000000000009A
:100AB300000000000000000001010101010101012B
:100AC300010300000000000000000000000000001F
:100AD30000000000000000002042048800FC44C421
:100AE300447F44C41C000018000000000000000004
:100AF300000000000000000006211827201116083E
:100B0300142320000000000000000000000000008B
:100B1300000000000000000010228400FE02FA0220
:100B2300FE00F800FF0018060000000000000000AF
:100B330000000000000000000120110C0304190054
:100B430023203F0000000000000000000000000020
:100B5300000000000000000000BE22E2223E00FE72
:100B6300222222E20200101F000000000000000009
:100B73000000000000000000100F0909003F2222BE
:100B830022232000000000000000000000000000FD
:100B930000000000000000000404F484D4A5A6A40F
:100BA300D484F4040400003E0000000000000000B0
:100BB3000000000000000000020A0E0A0B0A0E2AC1
:100BC300223E0000000000000000000000000000C2
:080BD30000000000000000001A
:1010C100EF4E60157D087C07ED1DAA0470011C4AD6
:0910D10070F6EF1F70EA1E80E7C3
:0110DA0022F3
:09116900D2B2D2B3C2B3C2B22269
:07117200D2B2C2B3D2B322D6
:0B11310012100112113CAF041210015B
:05113C00D2B2C2B22294
:070FFA00AC071211697F78BA
:10100100C2B2E4FEAD07530580BD8004D2B38002B5
:0E101100C2B3EF25E0FFD2B2C2B20EBE08E6B7
:01101F0022AE
:0E114100120FFA12113CE4FF1211310211726A
:0E114F00120FFA12113C7F4012113102117280
:100FA200E924B0FFE433FEE4FDFC120FBDE4FDFCD6
:0B0FB200FFFE120FBD7F10E4FDFCFEEF
:100FBD00AB07AA06ED4C600302114FAF03121141AE
:010FCD002201
:021020008F2E11
:10102200E4F9120FA2E4F52FAF2E7E007D017C00C1
:10103200120FBD052FE52FC3948040EC09B908E2D9
:01104200228B
:1010A300D3EF9400EE940040147D657C18ED1D7021
:0D10B300011CED4C70F7EF1F70E61E80E38E
:0110C000220D
:10110A00EF1FAA0670011E4A600BE4FDEDC3947B33
:05111A0050EE0D80F70E
:01111F0022AD
:100FCE00A907ED24B0FFE433FEE4FDFC120FBDE9EA
:100FDE0054F0C4540F7E004410FFE4FDFC120FBD0C
:0C0FEE00E9540FFF7E00E4FDFC020FBD83
:1010F3007F8D120FB9E4FDFC7F14FE120FBDE4FDDA
:07110300FC7FAFFE020FBDEF
:10112000E4FDFC7F8D120FB3E4FDFC7FAEFE020FE9
:01113000BD01
:10106400E4F9120FA2E4F5257D017C00E4FFFE12F1
:0F1074000FBD0525E525C3948040ED09B908E3BC
:01108300224A
:10104300E4F9120FA2E4F5307D017C007F017E00FC
:10105300120FBD0530E530C3948040EC09B908E2B6
:01106300226A
:040CBB008F298D2AC6
:100CBF00E4F52DF9EB24E0F52DE529D3947F4007DA
:100CCF00E4F529052A052AE52C64107069AD2AAFD1
:100CDF0029120FCEE4F975F010E52DA429F582E461
:100CEF0035F0F583E582242BF582E5833402F58315
:100CFF00E493FF7E007D017C00120FBD09B908D679
:100D0F00E52A04FDAF29120FCEE4F975F010E52D99
:100D1F00A429F582E435F0F583E5822433F582E5E5
:100D2F00833402F583E493FF7E007D017C00120F74
:100D3F00BD09B908D622AD2AAF29120FCEE4F97535
:100D4F00F006E52DA42403F582E5F03400F583E5E4
:100D5F008229F582E43583F583E493FF7E007D01DC
:090D6F007C00120FBD09B906D683
:010D78002258
:0410DB008F31A905A3
:1010DF007F017E00AD0119ED6009AD317C00120D6D
:0310EF00A680F1E7
:0110F20022DB
:080E0D008F138D148A158B165A
:100E1500E4F51BF519E519C395175065C3E5179555
:100E25001914FD7F0A1210DBAC15AD16CFCDCFCE50
:100E3500CCCE120DB87C007D0A120DB88D1AE51BBB
:100E45007023E51714FFE519C39F5019E51A7012B1
:100E5500E518C3138519F0A42513FF85182C7B20ED
:100E65008016751B01E518C3138519F0A42513FF1A
:100E7500E51A2430FB85182CAD14120CBB0519801E
:010E850094D8
:010E86002249
:0A0F62008F1C8D1D8B1E8A1F892035
:100F6C00E4F522AB1EAA1FA92085228275830012EC
:100F7C000D79FB602085212CAD1DAF1C120CBB74B0
:100F8C0008251CF51CD394784007E4F51C051D05B9
:050F9C001D052280CEBE
:010FA100222D
:060E87008F258D268B274C
:100E8D00E4F528120FCEE4F975F040E527A4241BF4
:100E9D00F582E5F03408F583E58229F582E43583A2
:100EAD00F583E493FF7E007D017C00120FBD0528C4
:100EBD0009B90ED4E52604FDAF25120FCEE4F97560
:100ECD00F040E527A4243BF582E5F03408F583E5F1
:100EDD008229F582E43583F583E493FF7E007D015D
:0B0EED007C00120FBD052809B90ED4CF
:010EF80022D7
:040EF9008F088B0AC9
:100EFD00E4F50FF510E50B5407700BE50B13131309
:100F0D00541FF512800AE50B131313541F04F51229
:100F1D008D12E512C3950B503BAD12AF08120FCEDB
:100F2D00850811E511C3950A5026AB0CAA0DA90E23
:100F3D000510E510AE0F7002050F14F5828E8312A9
:100F4D000D79FF7E007D017C00120FBD051180D350
:040F5D00051280BE3B
:010F6100226D
:100BDB00E4FDFC7FAEFE120FACE4FDFC7F40FE1289
:100BEB000FBDE4FDFC7FB0FE120FBDE4FDFC7F8169
:100BFB00FE120FBDE4FDFC7FFFFE120FBDE4FDFCFA
:100C0B007FA1FE120FBDE4FDFC7FA6FE120FBDE41B
:100C1B00FDFC7FA8FE120FBDE4FDFC7F3FFE120F13
:100C2B00BDE4FDFC7FC8FE120FBDE4FDFC7FD3FECF
:100C3B00120FBDE4FDFCFFFE120FBDE4FDFC7FD5E2
:100C4B00FE120FBDE4FDFC7F80FE120FBDE4FDFC28
:100C5B007FD8FE120FBDE4FDFC7F05FE120FBDE435
:100C6B00FDFC7FD9FE120FBDE4FDFC7FF1FE120FE0
:100C7B00BDE4FDFC7FDAFE120FBDE4FDFC7F12FE2E
:100C8B00120FBDE4FDFC7FDBFE120FBDE4FDFC7F0C
:100C9B0030FE120FBDE4FDFC7F8DFE120FBDE4FD97
:100CAB00FC7F14FE120FBDE4FDFC7FAFFE020FBDF7
:100D7900BB010CE58229F582E5833AF583E022502F
:100D890006E92582F8E622BBFE06E92582F8E22279
:0D0D9900E58229F582E5833AF583E4932293
:100DA600EF8DF0A4A8F0CF8CF0A428CE8DF0A42E61
:020DB600FE221B
:100DB800BC000BBE0029EF8DF084FFADF022E4CC1F
:100DC800F875F008EF2FFFEE33FEEC33FCEE9DECE8
:100DD800984005FCEE9DFE0FD5F0E9E4CEFD22ED2E
:100DE800F8F5F0EE8420D21CFEADF075F008EF2F78
:100DF800FFED33FD4007985006D5F0F222C398FD69
:050E08000FD5F0EA2205
:00000001FF
